:100000005004001071030000000000000000000018
:1000100000000000000000000000000000000000E0
:10002000074B8022D96F92000A43DA67054B002202
:100030000B211A67D9609A6001225A607047C04646
:100040000480044000400140014B98687047C0465E
:1000500000400140024B9B689842FBD87047C04665
:100060000040014007B5044B01909868019BC018FF
:10007000FFF7F0FF07BDC0460040014038B5051C42
:100080000C1C00F05FF84E2000F0B1F800F0A8F86A
:10009000002801D1002010E0281C00F0A8F800F092
:1000A0009FF80028F6D0201C00F0A1F800F098F886
:1000B000002802D000F052F8012038BD034BA022E6
:1000C000D205D15810200143D1507047FC3F0000A9
:1000D00008B5FFF7B9FF0530FFF7BCFF08BD00000A
:1000E00008B5002802D0FFF7E9FF0BE0A02380222B
:1000F000DB0512029858102108439850024A98587C
:100100008843985008BDC046FC3F0000A0238022D1
:10011000DB0512022021002803D19858084398508B
:10012000024A9858884398507047C046FC3F0000E8
:10013000034BA022D205D0588006C00F7047C0469E
:10014000FC3F000008B50020FFF7E0FFFFF7C0FF0D
:100150000020FFF7C5FFFFF7BBFF08BD08B5002073
:10016000FFF7BEFFFFF7B4FF0020FFF7CFFFFFF759
:10017000AFFFFFF7A3FFFFF7ABFFA0228023D2055D
:100180001B02D15820208143D150FFF7A1FF08BDA9
:1001900010B5041C0020FFF7A3FFFFF799FF201CF8
:1001A000FFF7B4FFFFF78AFFFFF792FF10BD10B50E
:1001B0000020FFF795FFFFF78BFFA0228023D205D9
:1001C0001B02D15820208143D150FFF777FFFFF762
:1001D0007FFFFFF7ADFF041CFFF77AFF201C10BD67
:1001E00008B5FFF7E4FF43425841C0B208BD38B537
:1001F000051C0824E809013C6D00FFF7C9FFEDB2BA
:10020000002CF7D138BD00000A68F8B50E1C0F2489
:100210004B68164D122A05D1211C2C7899408C432D
:100220002C7006E01249271C0C789F40BC430C70D0
:100230002C78032812D8D2B200F0C4F802040608C1
:100240000A2104E0062102E0052100E0092199408D
:100250000C43E4B2101C211CFFF710FF3368122B73
:1002600001D12C7001E0024B1C70F8BD3000001071
:100270004C000010C21770B58518061C0C1C5540A8
:10028000002D26D02069FFF7EDFEA268E368002E5E
:1002900008DD0132A26062690133E36093420AD152
:1002A000002307E0013AA260002B01D16369E360FB
:1002B000E368013BE3600748E268013D104004D574
:1002C000042301385B4218430130211CFFF79CFFD7
:1002D000D6E770BD0300008010B5041C0020011C8F
:1002E000FFF7CCFE00210120FFF7C8FE00211220FD
:1002F000FFF7C4FE00211320FFF7C0FE0D4A0E4990
:10030000002313201060536054619360D360116127
:100310000A4A10600420506054619360D3601161F8
:10032000074A1220106053609360D36011615461DA
:1003300010BDC04618000010102700003400001047
:100340000000001010B5FFF76BFE4020FFF7C4FF60
:10035000054C0648211CFFF78DFF80200001211C61
:10036000FFF788FFF4E7C0460000001000F8FFFF29
:1003700010B50F4B0F4A191D043B934203D00022C6
:100380001A600B1CF6E70C4A0C490023891A8908ED
:100390000131890004338B4207D0094CD0181C1955
:1003A000043C246804380460F4E7FFF7CBFFFEE761
:1003B00004000010500000100000001000000010A9
:1003C000D803000002B4714649084900095C49009D
:0803D0008E4402BC7047C046D8
:040000030000037185
:00000001FF
