:1000000010040010290200000000000000000000A1
:1000100000000000000000000000000000000000E0
:10002000074B8022D96F92000A43DA67054B002202
:100030000B211A67D9609A6001225A607047C04646
:100040000480044000400140014B98687047C0465E
:1000500000400140024B9B689842FBD87047C04665
:100060000040014007B5044B01909868019BC018FF
:10007000FFF7F0FF07BDC0460040014008B5084B40
:1000800001211A1C98321160996F090141430548FA
:1000900000F0F4F8044B0212C0B25A60186008BDB8
:1000A00000800440001BB7000080004038B51A4BA8
:1000B0008022D96F52020A43DA67DA6F8021490140
:1000C0000A43DA67154A07251068A84310601468C8
:1000D000012004431460124A1468AC43146014688D
:1000E00020431060DA6F0F4C1143D96796208323A9
:1000F000E3600002FFF7C2FF0323E360A5606369CA
:10010000626960231340602BFAD16369DA0702D574
:10011000044B1B68F9E738BD04800440A440044048
:10012000A840044000800040024B5A69D107FBD52B
:10013000186870470080004010B50C4BC1B21A68B7
:100140000A431A60012801D101200DE0FFF77CFF6E
:10015000074BC418FFF778FF844204D900F00AF86F
:100160000128F7D1F0E7002010BDC0460080004014
:10017000A0860100074B01205A6910B5024206D043
:100180001C68844205D0FFF7D7FF201C01E0012046
:10019000404210BD0080004038B5FFF787FFFFF7F1
:1001A0003FFF0220FFF7C8FF002804D1FA2080009B
:1001B000FFF758FFF5E7FFF7B7FF0328F1D1174D19
:1001C0002B685808C4B2C0B2FFF7B6FF2B68DA0735
:1001D00001D50134E4B2201CFFF7AEFF104D2A68B0
:1001E0005008C4B2C0B2FFF7A7FF2B68DA0701D5E9
:1001F0000134E4B2201CFFF79FFF0A4D2B6858081A
:10020000C4B2C0B2FFF798FF2B68DA0701D50134FA
:10021000E4B2201CFFF790FFD1E7C04600000010B9
:10022000040000100800001010B50F4B0F4A191DF4
:10023000043B934203D000221A600B1CF6E70C4AE1
:100240000C490023891A89080131890004338B4243
:1002500007D0094CD0181C19043C246804380460E9
:10026000F4E7FFF799FFFEE7100000100C00001004
:10027000000000100C0000101C030000002934D006
:100280000123002210B488422CD301242407A14268
:1002900004D2814202D209011B01F8E7E400A14225
:1002A00004D2814202D249005B00F8E7884201D3C0
:1002B000401A1A434C08A04202D3001B5C08224398
:1002C0008C08A04202D3001B9C082243CC08A04209
:1002D00002D3001BDC082243002803D01B0901D0F5
:1002E0000909E3E7101C10BC7047002801D000206A
:1002F000C04307B4024802A14018029003BDC046A3
:10030000190000000029F0D003B5FFF7B9FF0EBCBB
:0C0310004243891A1847C0467047C04697
:0C031C00E8030000E8030000E803000014
:0400000300000229CE
:00000001FF
