:10000000600400108D0500000000000000000000EA
:1000100000000000000000000000000000000000E0
:10002000074B8022D96F92000A43DA67054B002202
:100030000B211A67D9609A6001225A607047C04646
:100040000480044000400140014B98687047C0465E
:1000500000400140024B9B689842FBD87047C04665
:100060000040014007B5044B01909868019BC018FF
:10007000FFF7F0FF07BDC046004001401A4A80214B
:10008000131DD86F8901014310B5D967D86F80213E
:1000900049020143D967154B0720996F802481439A
:1000A0009967986F022108439867986FA0439867F3
:1000B0008E238B40D0581024A043D0500C4BFF20EF
:1000C0001A6882431A601A68114319601968094A4C
:1000D0000A401A601968802292000A431A6019685F
:1000E000054A0A401A6010BD0080044000400440E8
:1000F00000C00140FF00FFFFFFFFFEFF024B5868FA
:100100000004800D7047C04600C00140074B084AFC
:1001100019680A401A601968802252040A431A605A
:100120005A68002AFCDA01207047C04600C001402E
:10013000FFFFFFF808B5084B01211A1C9832116027
:10014000996F09014143054800F054FA044B02122B
:10015000C0B25A60186008BD00800440001BB700A0
:100160000080004038B51A4B8022D96F52020A43F2
:10017000DA67DA6F802149010A43DA67154A0725F1
:100180001068A84310601468012004431460124AE8
:100190001468AC431460146820431060DA6F0F4C8D
:1001A0001143D96796208323E3600002FFF7C2FF63
:1001B0000323E360A5606369626960231340602BD9
:1001C000FAD16369DA0702D5044B1B68F9E738BD39
:1001D00004800440A4400440A84004400080004043
:1001E000024B5A69D107FBD5186870470080004060
:1001F000044B5A69D10701D5186801E0012040423B
:100200007047C04600800040014B186001207047D5
:100210000080004038B5051C0C1C00F05FF84E2033
:1002200000F0B1F800F0A8F8002801D1002010E09B
:10023000281C00F0A8F800F09FF80028F6D0201C39
:1002400000F0A1F800F098F8002802D000F052F871
:10025000012038BD034BA022D205D1581020014304
:10026000D1507047FC3F000008B5FFF7EDFE0530A8
:10027000FFF7F0FE08BD000008B5002802D0FFF728
:10028000E9FF0BE0A0238022DB0512029858102121
:1002900008439850024A98588843985008BDC04671
:1002A000FC3F0000A0238022DB0512022021002851
:1002B00003D1985808439850024A98588843985058
:1002C0007047C046FC3F0000034BA022D205D05827
:1002D0008006C00F7047C046FC3F000008B50020F4
:1002E000FFF7E0FFFFF7C0FF0020FFF7C5FFFFF7B4
:1002F000BBFF08BD08B50020FFF7BEFFFFF7B4FF46
:100300000020FFF7CFFFFFF7AFFFFFF7A3FFFFF7D7
:10031000ABFFA0228023D2051B02D15820208143AD
:10032000D150FFF7A1FF08BD10B5041C0020FFF756
:10033000A3FFFFF799FF201CFFF7B4FFFFF78AFF29
:10034000FFF792FF10BD10B50020FFF795FFFFF7F4
:100350008BFFA0228023D2051B02D158202081438D
:10036000D150FFF777FFFFF77FFFFFF7ADFF041CCA
:10037000FFF77AFF201C10BD08B5FFF7E4FF4342EA
:100380005841C0B208BD38B5051C0824E809013C35
:100390006D00FFF7C9FFEDB2002CF7D138BD0000AA
:1003A0000A6870B50D1C6B680F21122A05D1144E16
:1003B000994034788C43347005E00E1C11499E40FE
:1003C0000C78B4430C70032812D8D2B200F008F9AC
:1003D000020406080A2104E0062102E0052100E0EB
:1003E000092199400C43E4B2101C211CFFF712FFB5
:1003F0002B68122B01D1024B00E0024B1C7070BD28
:100400003400001050000010C21770B58518061C8B
:100410000C1C5540002D26D02069FFF723FEA26852
:10042000E368002E08DD0132A26062690133E360F7
:1004300093420AD1002307E0013AA260002B01D1C8
:100440006369E360E368013BE3600748E268013DFC
:10045000104004D5042301385B4218430130211CAD
:10046000FFF79EFFD6E770BD0300008038B5041C7F
:100470000020011CFFF7CEFE00210120FFF7CAFE7D
:1004800000211220FFF7C6FE00211320FFF7C2FE55
:100490000D480E49132202600A6004224A600C4A89
:1004A000002343608360C3608B60CB6053609360C4
:1004B000D360084B1225156044614C61546103619F
:1004C0000B61136138BDC0461C00001038000010DD
:1004D00004000010204E0000F7B5FFF7CFFDFFF736
:1004E00041FEFFF79DFD4020FFF7C0FFFFF780FEB4
:1004F000013007D10220FFF787FEFA208000FFF7C6
:10050000B1FDF3E7FFF76CFE0328EFD11A4C00238F
:1005100023602368FF2BE9DC184D00232B602B6838
:10052000FF2B22DCFFF7F2FD002817D00327FFF78F
:10053000EDFD0028FBD0124E013F33680193FFF719
:10054000DDFD019BC0183060002FF0D1032100F0C9
:1005500051F83060C010C0B2FFF756FE08200949BC
:10056000FFF752FF2B680133D8E708200649FFF751
:100570004BFF23680133CBE75400001058000010F4
:10058000000000101C0000100400001010B50F4BFC
:100590000F4A191D043B934203D000221A600B1C22
:1005A000F6E70C4A0C490023891A890801318900B1
:1005B00004338B4207D0094CD0181C19043C246822
:1005C00004380460F4E7FFF787FFFEE7040000103B
:1005D0005C000010000000100000001094060000F5
:1005E00002B4714649084900095C49008E4402BCC6
:1005F0007047C046002934D00123002210B488423D
:100600002CD301242407A14204D2814202D2090141
:100610001B01F8E7E400A14204D2814202D2490062
:100620005B00F8E7884201D3401A1A434C08A04205
:1006300002D3001B5C0822438C08A04202D3001B9B
:100640009C082243CC08A04202D3001BDC082243B2
:10065000002803D01B0901D00909E3E7101C10BCD6
:100660007047002801D00020C04307B4024802A10F
:100670004018029003BDC046190000000029F0D0C8
:1006800003B5FFF7B9FF0EBC4243891A1847C046AD
:040690007047C046A9
:040000030000058D67
:00000001FF
