:100000000004001085000000000000000000000057
:1000100000000000000000000000000000000000E0
:10002000144B01211A6810B50A431A60124B802242
:10003000D86F52010243DA67104A032413680B4356
:1000400013600F4B986808439860D8682043D860C5
:10005000186B8024204318631868FF240843186035
:1000600010680131A04310601068C9B208431060E5
:10007000F2E7C046A8400440048004409880044051
:100080000080004010B50F4B0F4A191D043B9342EE
:1000900003D000221A600B1CF6E70C4A0C4900231F
:1000A000891A89080131890004338B4207D0094C31
:1000B000D0181C19043C246804380460F4E7FFF7E6
:1000C000AFFFFEE704000010000000100000001069
:0800D00000000010D800000040
:040000030000008574
:00000001FF
