:1000000010040010010300000000000000000000C8
:1000100000000000000000000000000000000000E0
:10002000074B8022D96F92000A43DA67054B002202
:100030000B211A67D9609A6001225A607047C04646
:100040000480044000400140014B98687047C0465E
:1000500000400140024B9B689842FBD87047C04665
:100060000040014007B5044B01909868019BC018FF
:10007000FFF7F0FF07BDC0460040014038B5051C42
:100080000C1C00F05FF84E2000F0B1F800F0A8F86A
:10009000002801D1002010E0281C00F0A8F800F092
:1000A0009FF80028F6D0201C00F0A1F800F098F886
:1000B000002802D000F052F8012038BD034BA022E6
:1000C000D205D15810200143D1507047FC3F0000A9
:1000D00008B5FFF7B9FF0530FFF7BCFF08BD00000A
:1000E00008B5002802D0FFF7E9FF0BE0A02380222B
:1000F000DB0512029858102108439850024A98587C
:100100008843985008BDC046FC3F0000A0238022D1
:10011000DB0512022021002803D19858084398508B
:10012000024A9858884398507047C046FC3F0000E8
:10013000034BA022D205D0588006C00F7047C0469E
:10014000FC3F000008B50020FFF7E0FFFFF7C0FF0D
:100150000020FFF7C5FFFFF7BBFF08BD08B5002073
:10016000FFF7BEFFFFF7B4FF0020FFF7CFFFFFF759
:10017000AFFFFFF7A3FFFFF7ABFFA0228023D2055D
:100180001B02D15820208143D150FFF7A1FF08BDA9
:1001900010B5041C0020FFF7A3FFFFF799FF201CF8
:1001A000FFF7B4FFFFF78AFFFFF792FF10BD10B50E
:1001B0000020FFF795FFFFF78BFFA0228023D205D9
:1001C0001B02D15820208143D150FFF777FFFFF762
:1001D0007FFFFFF7ADFF041CFFF77AFF201C10BD67
:1001E00008B5FFF7E4FF43425841C0B208BD38B537
:1001F000051C0824E809013C6D00FFF7C9FFEDB2BA
:10020000002CF7D138BD08B5032810D800F0A2F8AB
:100210000205080B13200A2107E01320062104E041
:100220001320052101E013200921FFF727FF08BD56
:10023000C11738B54418051C4C40002C2BD0164B68
:100240001868FFF70FFF154A154B1168002D0ADDDE
:100250000131116013491A68096801321A608A4233
:100260000CD1002209E0013911601A68002A02D17C
:100270000C4A12681A601A68013A1A6018680A4B28
:10028000013C184004D5042301385B421843013077
:10029000FFF7B9FFD1E738BD0000001004000010DF
:1002A0000C000010080000100300008010B5041CB2
:1002B0000020011CFFF7E2FE00210120FFF7DEFE17
:1002C00000211220FFF7DAFE00211320FFF7D6FEEF
:1002D000024B034A1C60034B1A6010BD080000105B
:1002E000E02E00000000001008B5FFF799FE402046
:1002F000FFF7DCFF80200001FFF79AFFFAE700001C
:1003000010B50F4B0F4A191D043B934203D0002236
:100310001A600B1CF6E70C4A0C490023891A89085D
:100320000131890004338B4207D0094CD0181C19C5
:10033000043C246804380460F4E7FFF7D5FFFEE7C7
:100340000800001010000010000000100400001051
:100350006803000002B4714649084900095C49007D
:080360008E4402BC7047C04648
:04036800A08601006A
:0400000300000301F5
:00000001FF
