:1000000000040010ED0000000000000000000000EF
:1000100000000000000000000000000000000000E0
:1000200008B5084B01211A1C98321160996F09011B
:100030004143054800F084F8044B0212C0B25A60F4
:10004000186008BD00800440001BB700008000401D
:1000500038B5214B8022D96F52020A43DA67DA6F32
:10006000802149010A43DA671C4A07251068A84322
:1000700010601468012004431460194A1468AC43EA
:100080001460146820431060DA6F164C1143D9676E
:1000900096208323E3600002FFF7C2FF0323E3609F
:1000A000A5606369626960231340602BFAD16369BC
:1000B000DA0702D50B4B1B68F9E755232268DBB240
:1000C00013432360084B013B002BFCD16369DA0723
:1000D000FCD5044B1B68F1E704800440A4400440B5
:1000E000A840044000800040FFFF030010B50F4B04
:1000F0000F4A191D043B934203D000221A600B1CC7
:10010000F6E70C4A0C490023891A89080131890055
:1001100004338B4207D0094CD0181C19043C2468C6
:1001200004380460F4E7FFF793FFFEE704000010D3
:10013000000000100000001000000010E0010000AE
:10014000002934D00123002210B488422CD301248A
:100150002407A14204D2814202D209011B01F8E71F
:10016000E400A14204D2814202D249005B00F8E7D8
:10017000884201D3401A1A434C08A04202D3001B04
:100180005C0822438C08A04202D3001B9C08224337
:10019000CC08A04202D3001BDC082243002803D075
:1001A0001B0901D00909E3E7101C10BC70470028A7
:1001B00001D00020C04307B4024802A140180290B9
:1001C00003BDC046190000000029F0D003B5FFF7B9
:1001D000B9FF0EBC4243891A1847C0467047C04653
:04000003000000ED0C
:00000001FF
